{
  "contractName": "Dogs",
  "abi": [
    {
      "inputs": [],
      "payable": false,
      "stateMutability": "nonpayable",
      "type": "constructor"
    },
    {
      "constant": true,
      "inputs": [],
      "name": "_initialized",
      "outputs": [
        {
          "internalType": "bool",
          "name": "",
          "type": "bool"
        }
      ],
      "payable": false,
      "stateMutability": "view",
      "type": "function"
    },
    {
      "constant": true,
      "inputs": [],
      "name": "owner",
      "outputs": [
        {
          "internalType": "address",
          "name": "",
          "type": "address"
        }
      ],
      "payable": false,
      "stateMutability": "view",
      "type": "function"
    },
    {
      "constant": true,
      "inputs": [],
      "name": "getNumberOfDogs",
      "outputs": [
        {
          "internalType": "uint256",
          "name": "",
          "type": "uint256"
        }
      ],
      "payable": false,
      "stateMutability": "view",
      "type": "function"
    },
    {
      "constant": false,
      "inputs": [
        {
          "internalType": "uint256",
          "name": "toSet",
          "type": "uint256"
        }
      ],
      "name": "setNumberOfDogs",
      "outputs": [],
      "payable": false,
      "stateMutability": "nonpayable",
      "type": "function"
    }
  ],
  "bytecode": "0x608060405234801561001057600080fd5b5033600560006101000a81548173ffffffffffffffffffffffffffffffffffffffff021916908373ffffffffffffffffffffffffffffffffffffffff160217905550610202806100616000396000f3fe608060405234801561001057600080fd5b506004361061004c5760003560e01c806314861b22146100515780631680a5ed1461007f5780633072cf601461009d5780638da5cb5b146100bf575b600080fd5b61007d6004803603602081101561006757600080fd5b8101908080359060200190929190505050610109565b005b61008761014f565b6040518082815260200191505060405180910390f35b6100a5610194565b604051808215151515815260200191505060405180910390f35b6100c76101a7565b604051808273ffffffffffffffffffffffffffffffffffffffff1673ffffffffffffffffffffffffffffffffffffffff16815260200191505060405180910390f35b80600060405180807f446f677300000000000000000000000000000000000000000000000000000000815250600401905090815260200160405180910390208190555050565b60008060405180807f446f6773000000000000000000000000000000000000000000000000000000008152506004019050908152602001604051809103902054905090565b600560149054906101000a900460ff1681565b600560009054906101000a900473ffffffffffffffffffffffffffffffffffffffff168156fea265627a7a72315820400febd16c07141cb61835710d26ef19765f9b3d01412c497f846f14b279bf6264736f6c634300050c0032",
  "source": "pragma solidity 0.5.12;\n\nimport \"./Storage.sol\";\n\ncontract Dogs is Storage {\n\n\tmodifier onlyOwner(){\n\t\trequire(msg.sender == owner);\n\t\t_;\n\t}\n\n\tconstructor() public {\n\t\towner = msg.sender;\n\t}\n\n\tfunction getNumberOfDogs() public view returns(uint256) {\n\t\treturn _uintStorage[\"Dogs\"];\n\t}\n\n\tfunction setNumberOfDogs(uint256 toSet) public {\n\t\t_uintStorage[\"Dogs\"] = toSet;\n\t}\n\n\n}",
  "sourcePath": "/Users/gabba/git/crypto/ethereum/proxy/proxyContract/contracts/Dogs.sol",
  "compiler": {
    "name": "solc",
    "version": "0.5.12+commit.7709ece9.Emscripten.clang"
  },
  "schemaVersion": "3.0.18-next.1",
  "updatedAt": "2020-05-14T05:10:57.344Z",
  "networkType": "ethereum",
  "devdoc": {
    "methods": {}
  },
  "userdoc": {
    "methods": {}
  }
}