{
  "contractName": "Proxy",
  "abi": [
    {
      "inputs": [
        {
          "internalType": "address",
          "name": "_currentAddress",
          "type": "address"
        }
      ],
      "payable": false,
      "stateMutability": "nonpayable",
      "type": "constructor"
    },
    {
      "payable": true,
      "stateMutability": "payable",
      "type": "fallback"
    },
    {
      "constant": true,
      "inputs": [],
      "name": "_initialized",
      "outputs": [
        {
          "internalType": "bool",
          "name": "",
          "type": "bool"
        }
      ],
      "payable": false,
      "stateMutability": "view",
      "type": "function"
    },
    {
      "constant": true,
      "inputs": [],
      "name": "owner",
      "outputs": [
        {
          "internalType": "address",
          "name": "",
          "type": "address"
        }
      ],
      "payable": false,
      "stateMutability": "view",
      "type": "function"
    },
    {
      "constant": false,
      "inputs": [
        {
          "internalType": "address",
          "name": "_newAddress",
          "type": "address"
        }
      ],
      "name": "upgrade",
      "outputs": [],
      "payable": false,
      "stateMutability": "nonpayable",
      "type": "function"
    }
  ],
  "bytecode": "0x608060405234801561001057600080fd5b506040516103453803806103458339818101604052602081101561003357600080fd5b810190808051906020019092919050505080600660006101000a81548173ffffffffffffffffffffffffffffffffffffffff021916908373ffffffffffffffffffffffffffffffffffffffff160217905550506102b0806100956000396000f3fe6080604052600436106100345760003560e01c80630900f010146101275780633072cf60146101785780638da5cb5b146101a7575b6000600660009054906101000a900473ffffffffffffffffffffffffffffffffffffffff169050600073ffffffffffffffffffffffffffffffffffffffff16600660009054906101000a900473ffffffffffffffffffffffffffffffffffffffff1673ffffffffffffffffffffffffffffffffffffffff1614156100b757600080fd5b60606000368080601f016020809104026020016040519081016040528093929190818152602001838380828437600081840152601f19601f820116905080830192505050505050509050600080825160208401855af43d604051816000823e8260008114610123578282f35b8282fd5b34801561013357600080fd5b506101766004803603602081101561014a57600080fd5b81019080803573ffffffffffffffffffffffffffffffffffffffff1690602001909291905050506101fe565b005b34801561018457600080fd5b5061018d610242565b604051808215151515815260200191505060405180910390f35b3480156101b357600080fd5b506101bc610255565b604051808273ffffffffffffffffffffffffffffffffffffffff1673ffffffffffffffffffffffffffffffffffffffff16815260200191505060405180910390f35b80600660006101000a81548173ffffffffffffffffffffffffffffffffffffffff021916908373ffffffffffffffffffffffffffffffffffffffff16021790555050565b600560149054906101000a900460ff1681565b600560009054906101000a900473ffffffffffffffffffffffffffffffffffffffff168156fea265627a7a723158204fbe04a572d574cfa6fb2b15b5ed3e46d57facc16b2f2003d7fe700552429a8864736f6c634300050c0032",
  "source": "pragma solidity 0.5.12;\n\nimport \"./Storage.sol\";\n\ncontract Proxy is Storage {\n\n\taddress currentAddress;\n\n\tconstructor(address _currentAddress) public {\n\t\tcurrentAddress = _currentAddress;\n\t}\n\n\tfunction upgrade(address _newAddress) public {\n\t\tcurrentAddress = _newAddress;\n\t}\n\n\tfunction () payable external{\n\t\taddress implementation = currentAddress;\n\t\trequire(currentAddress != address(0));\n\t\tbytes memory data = msg.data;\n\n\t\tassembly {\n\t\t\tlet result := delegatecall(gas,\n\t\t\t\t\t\t\t\t\t\timplementation,\n\t\t\t\t\t\t\t\t\t\tadd(data, 0x20),\n\t\t\t\t\t\t\t\t\t\tmload(data),\n\t\t\t\t\t\t\t\t\t\t0,\n\t\t\t\t\t\t\t\t\t\t0)\n\t\t\tlet size := returndatasize\n\t\t\tlet ptr := mload(0x40)\n\t\t\treturndatacopy(ptr, 0 , size)\n\t\t\tswitch result\n\t\t\tcase 0 {revert(ptr, size)}\n\t\t\tdefault {return(ptr, size)}\n\t\t}\n\t}\n}",
  "sourcePath": "/Users/gabba/git/crypto/ethereum/proxy/proxyContract/contracts/Proxy.sol",
  "compiler": {
    "name": "solc",
    "version": "0.5.12+commit.7709ece9.Emscripten.clang"
  },
  "schemaVersion": "3.0.18-next.1",
  "updatedAt": "2020-05-14T05:10:57.347Z",
  "networkType": "ethereum",
  "devdoc": {
    "methods": {}
  },
  "userdoc": {
    "methods": {}
  }
}