{
  "contractName": "Storage",
  "abi": [
    {
      "constant": true,
      "inputs": [],
      "name": "_initialized",
      "outputs": [
        {
          "internalType": "bool",
          "name": "",
          "type": "bool"
        }
      ],
      "payable": false,
      "stateMutability": "view",
      "type": "function"
    },
    {
      "constant": true,
      "inputs": [],
      "name": "owner",
      "outputs": [
        {
          "internalType": "address",
          "name": "",
          "type": "address"
        }
      ],
      "payable": false,
      "stateMutability": "view",
      "type": "function"
    }
  ],
  "bytecode": "0x608060405234801561001057600080fd5b5061010d806100206000396000f3fe6080604052348015600f57600080fd5b506004361060325760003560e01c80633072cf601460375780638da5cb5b146057575b600080fd5b603d609f565b604051808215151515815260200191505060405180910390f35b605d60b2565b604051808273ffffffffffffffffffffffffffffffffffffffff1673ffffffffffffffffffffffffffffffffffffffff16815260200191505060405180910390f35b600560149054906101000a900460ff1681565b600560009054906101000a900473ffffffffffffffffffffffffffffffffffffffff168156fea265627a7a72315820dfddd4a95ce67cfc901d608a218888dcdb70fa3fdceac6d18ca2295bd2c80e9564736f6c634300050c0032",
  "source": "pragma solidity 0.5.12;\n\ncontract Storage {\n\tmapping (string => uint256) _uintStorage;\n\tmapping (string => address) _addressStorage;\n\tmapping (string => bool) _boolStorage;\n\tmapping (string => string) _stringStorage;\n\tmapping (string => bytes4) _bytesStorage;\n\taddress public owner;\n\tbool public _initialized;\n}",
  "sourcePath": "/Users/gabba/git/ethereum/proxy/proxyContract/contracts/storage.sol",
  "compiler": {
    "name": "solc",
    "version": "0.5.12+commit.7709ece9.Emscripten.clang"
  },
  "schemaVersion": "3.0.23",
  "updatedAt": "2020-05-02T09:06:22.263Z",
  "devdoc": {
    "methods": {}
  },
  "userdoc": {
    "methods": {}
  }
}